{"abi":[{"type":"constructor","inputs":[{"name":"_tokens","type":"address[]","internalType":"address[]"}],"stateMutability":"nonpayable"},{"type":"function","name":"cancelContribution","inputs":[{"name":"_id","type":"uint256","internalType":"uint256"}],"outputs":[],"stateMutability":"nonpayable"},{"type":"function","name":"contribute","inputs":[{"name":"_id","type":"uint256","internalType":"uint256"},{"name":"_amount","type":"uint256","internalType":"uint256"}],"outputs":[],"stateMutability":"nonpayable"},{"type":"function","name":"createCampaign","inputs":[{"name":"_token","type":"address","internalType":"address"},{"name":"_goal","type":"uint256","internalType":"uint256"},{"name":"_duration","type":"uint256","internalType":"uint256"}],"outputs":[{"name":"","type":"uint256","internalType":"uint256"}],"stateMutability":"nonpayable"},{"type":"function","name":"getCampaign","inputs":[{"name":"_id","type":"uint256","internalType":"uint256"}],"outputs":[{"name":"","type":"uint256","internalType":"uint256"},{"name":"","type":"uint256","internalType":"uint256"},{"name":"","type":"address","internalType":"address"},{"name":"","type":"uint256","internalType":"uint256"}],"stateMutability":"view"},{"type":"function","name":"getContribution","inputs":[{"name":"_id","type":"uint256","internalType":"uint256"},{"name":"contributor","type":"address","internalType":"address"}],"outputs":[{"name":"","type":"uint256","internalType":"uint256"}],"stateMutability":"view"},{"type":"function","name":"refund","inputs":[{"name":"_id","type":"uint256","internalType":"uint256"}],"outputs":[],"stateMutability":"nonpayable"},{"type":"function","name":"withdraw","inputs":[{"name":"_id","type":"uint256","internalType":"uint256"}],"outputs":[{"name":"","type":"uint256","internalType":"uint256"}],"stateMutability":"nonpayable"},{"type":"error","name":"AddressEmptyCode","inputs":[{"name":"target","type":"address","internalType":"address"}]},{"type":"error","name":"AddressInsufficientBalance","inputs":[{"name":"account","type":"address","internalType":"address"}]},{"type":"error","name":"FailedInnerCall","inputs":[]},{"type":"error","name":"GoalNotReached","inputs":[]},{"type":"error","name":"IdDoesNotExist","inputs":[{"name":"id","type":"uint256","internalType":"uint256"}]},{"type":"error","name":"SafeERC20FailedOperation","inputs":[{"name":"token","type":"address","internalType":"address"}]},{"type":"error","name":"amountCannotBeZero","inputs":[]},{"type":"error","name":"amountExceedsGoal","inputs":[{"name":"goal","type":"uint256","internalType":"uint256"},{"name":"amount","type":"uint256","internalType":"uint256"}]},{"type":"error","name":"callerNotOwnerOfCampaign","inputs":[{"name":"user","type":"address","internalType":"address"}]},{"type":"error","name":"campaignDurationNotPassed","inputs":[]},{"type":"error","name":"deadlinePassed","inputs":[]},{"type":"error","name":"noContribution","inputs":[]},{"type":"error","name":"ownerCannotContribute","inputs":[]}],"bytecode":{"object":"0x60806040523480156200001157600080fd5b5060405162000cbf38038062000cbf8339810160408190526200003491620000dd565b60005b8151811015620000a25760018060008484815181106200005b576200005b620001af565b6020908102919091018101516001600160a01b03168252810191909152604001600020805460ff1916911515919091179055806200009981620001c5565b91505062000037565b5050620001ed565b634e487b7160e01b600052604160045260246000fd5b80516001600160a01b0381168114620000d857600080fd5b919050565b60006020808385031215620000f157600080fd5b82516001600160401b03808211156200010957600080fd5b818501915085601f8301126200011e57600080fd5b815181811115620001335762000133620000aa565b8060051b604051601f19603f830116810181811085821117156200015b576200015b620000aa565b6040529182528482019250838101850191888311156200017a57600080fd5b938501935b82851015620001a3576200019385620000c0565b845293850193928501926200017f565b98975050505050505050565b634e487b7160e01b600052603260045260246000fd5b600060018201620001e657634e487b7160e01b600052601160045260246000fd5b5060010190565b610ac280620001fd6000396000f3fe608060405234801561001057600080fd5b506004361061007d5760003560e01c8063461b60041161005b578063461b6004146100d05780635598f8cc146100e35780638c59091714610125578063e081dbf91461013857600080fd5b8063278ecde1146100825780632e1a7d4d14610097578063368e571b146100bd575b600080fd5b610095610090366004610930565b61014b565b005b6100aa6100a5366004610930565b610216565b6040519081526020015b60405180910390f35b6100956100cb366004610930565b61032b565b6100aa6100de366004610965565b61040f565b6100f66100f1366004610930565b6104a2565b6040516100b4949392919093845260208401929092526001600160a01b03166040830152606082015260800190565b610095610133366004610998565b610561565b6100aa6101463660046109ba565b610696565b600081815260036020526040902054819060ff1661018457604051637ff692df60e01b8152600481018290526024015b60405180910390fd5b6000828152600460209081526040808320338452600283528184208685529092528220546001820154919290916001600160a01b0316908290036101db5760405163c3a96d4160e01b815260040160405180910390fd5b826003015442101580156101f6575082600201548360040154105b1561020f5761020f6001600160a01b03821633846106f1565b5050505050565b600081815260036020526040812054829060ff1661024a57604051637ff692df60e01b81526004810182905260240161017b565b600083815260046020818152604092839020835160a08101855281546001600160a01b0390811680835260018401549091169382018490526002830154958201869052600383015460608301529190930154608084015291929133146102c55760405163dd6b59ab60e01b815233600482015260240161017b565b82606001514210156102e957604051621576ab60e61b815260040160405180910390fd5b818360800151101561030e576040516378c754c960e01b815260040160405180910390fd5b6103226001600160a01b03821633846106f1565b50949350505050565b600081815260036020526040902054819060ff1661035f57604051637ff692df60e01b81526004810182905260240161017b565b60008281526004602052604090206003810154421061039157604051630efbebf960e31b815260040160405180910390fd5b336000908152600260209081526040808320868452909152812054600183015490916001600160a01b03909116908290036103df5760405163c3a96d4160e01b815260040160405180910390fd5b33600081815260026020908152604080832089845290915281205561020f906001600160a01b03831690846106f1565b6000805481908180610420836109fc565b9091555060008054815260046020526040902080546001600160a01b03191633178155600281018690559091506104578442610a15565b600382810191909155600191820180546001600160a01b0319166001600160a01b038916179055600083815260209190915260409020805460ff1916909117905590505b9392505050565b600081815260036020526040812054819081908190859060ff166104dc57604051637ff692df60e01b81526004810182905260240161017b565b6000868152600460208181526040808420815160a08101835281546001600160a01b039081168252600183015416938101939093526002810154918301919091526003810154606083018190529201546080820152919061053e904290610a28565b604083015160808401516020909401519198509650945090925050509193509193565b600082815260036020526040902054829060ff1661059557604051637ff692df60e01b81526004810182905260240161017b565b600083815260046020526040902080546001600160a01b031633036105cd57604051635d27f53760e01b815260040160405180910390fd5b826000036105ee5760405163267391e160e11b815260040160405180910390fd5b80600201548382600401546106039190610a15565b1115610632576002810154604051630b70038360e31b815260048101919091526024810184905260440161017b565b3360009081526002602090815260408083208784529091528120805485929061065c908490610a15565b92505081905550828160040160008282546106779190610a15565b909155505060018101546001600160a01b031661020f81333087610755565b600082815260036020526040812054839060ff166106ca57604051637ff692df60e01b81526004810182905260240161017b565b50506001600160a01b03166000908152600260209081526040808320938352929052205490565b6040516001600160a01b0383811660248301526044820183905261075091859182169063a9059cbb906064015b604051602081830303815290604052915060e01b6020820180516001600160e01b038381831617835250505050610794565b505050565b6040516001600160a01b03848116602483015283811660448301526064820183905261078e9186918216906323b872dd9060840161071e565b50505050565b60006107a96001600160a01b038416836107f7565b905080516000141580156107ce5750808060200190518101906107cc9190610a3b565b155b1561075057604051635274afe760e01b81526001600160a01b038416600482015260240161017b565b60606108058383600061080e565b90505b92915050565b6060814710156108335760405163cd78605960e01b815230600482015260240161017b565b600080856001600160a01b0316848660405161084f9190610a5d565b60006040518083038185875af1925050503d806000811461088c576040519150601f19603f3d011682016040523d82523d6000602084013e610891565b606091505b50915091506108a18683836108ab565b9695505050505050565b6060826108c0576108bb82610907565b61049b565b81511580156108d757506001600160a01b0384163b155b1561090057604051639996b31560e01b81526001600160a01b038516600482015260240161017b565b508061049b565b8051156109175780518082602001fd5b604051630a12f52160e11b815260040160405180910390fd5b60006020828403121561094257600080fd5b5035919050565b80356001600160a01b038116811461096057600080fd5b919050565b60008060006060848603121561097a57600080fd5b61098384610949565b95602085013595506040909401359392505050565b600080604083850312156109ab57600080fd5b50508035926020909101359150565b600080604083850312156109cd57600080fd5b823591506109dd60208401610949565b90509250929050565b634e487b7160e01b600052601160045260246000fd5b600060018201610a0e57610a0e6109e6565b5060010190565b80820180821115610808576108086109e6565b81810381811115610808576108086109e6565b600060208284031215610a4d57600080fd5b8151801515811461049b57600080fd5b6000825160005b81811015610a7e5760208186018101518583015201610a64565b50600092019182525091905056fea26469706673582212202e8277dd3f20711ce9ce47d68f43d37fed0e7dbf47d7500d3ced58a4b21a101464736f6c63430008150033","linkReferences":{}},"methodIdentifiers":{"cancelContribution(uint256)":"368e571b","contribute(uint256,uint256)":"8c590917","createCampaign(address,uint256,uint256)":"461b6004","getCampaign(uint256)":"5598f8cc","getContribution(uint256,address)":"e081dbf9","refund(uint256)":"278ecde1","withdraw(uint256)":"2e1a7d4d"},"id":9}