{"abi":[{"type":"constructor","inputs":[{"name":"_name","type":"string","internalType":"string"},{"name":"_symbol","type":"string","internalType":"string"},{"name":"_priceInUSD","type":"uint256","internalType":"uint256"}],"stateMutability":"nonpayable"},{"type":"function","name":"allowance","inputs":[{"name":"owner","type":"address","internalType":"address"},{"name":"spender","type":"address","internalType":"address"}],"outputs":[{"name":"","type":"uint256","internalType":"uint256"}],"stateMutability":"view"},{"type":"function","name":"approve","inputs":[{"name":"spender","type":"address","internalType":"address"},{"name":"value","type":"uint256","internalType":"uint256"}],"outputs":[{"name":"","type":"bool","internalType":"bool"}],"stateMutability":"nonpayable"},{"type":"function","name":"balanceOf","inputs":[{"name":"account","type":"address","internalType":"address"}],"outputs":[{"name":"","type":"uint256","internalType":"uint256"}],"stateMutability":"view"},{"type":"function","name":"decimals","inputs":[],"outputs":[{"name":"","type":"uint8","internalType":"uint8"}],"stateMutability":"view"},{"type":"function","name":"getTokenPriceInUSD","inputs":[],"outputs":[{"name":"","type":"uint256","internalType":"uint256"}],"stateMutability":"view"},{"type":"function","name":"mint","inputs":[{"name":"_to","type":"address","internalType":"address"},{"name":"_amount","type":"uint256","internalType":"uint256"}],"outputs":[],"stateMutability":"nonpayable"},{"type":"function","name":"name","inputs":[],"outputs":[{"name":"","type":"string","internalType":"string"}],"stateMutability":"view"},{"type":"function","name":"owner","inputs":[],"outputs":[{"name":"","type":"address","internalType":"address"}],"stateMutability":"view"},{"type":"function","name":"renounceOwnership","inputs":[],"outputs":[],"stateMutability":"nonpayable"},{"type":"function","name":"symbol","inputs":[],"outputs":[{"name":"","type":"string","internalType":"string"}],"stateMutability":"view"},{"type":"function","name":"totalSupply","inputs":[],"outputs":[{"name":"","type":"uint256","internalType":"uint256"}],"stateMutability":"view"},{"type":"function","name":"transfer","inputs":[{"name":"to","type":"address","internalType":"address"},{"name":"value","type":"uint256","internalType":"uint256"}],"outputs":[{"name":"","type":"bool","internalType":"bool"}],"stateMutability":"nonpayable"},{"type":"function","name":"transferFrom","inputs":[{"name":"from","type":"address","internalType":"address"},{"name":"to","type":"address","internalType":"address"},{"name":"value","type":"uint256","internalType":"uint256"}],"outputs":[{"name":"","type":"bool","internalType":"bool"}],"stateMutability":"nonpayable"},{"type":"function","name":"transferOwnership","inputs":[{"name":"newOwner","type":"address","internalType":"address"}],"outputs":[],"stateMutability":"nonpayable"},{"type":"event","name":"Approval","inputs":[{"name":"owner","type":"address","indexed":true,"internalType":"address"},{"name":"spender","type":"address","indexed":true,"internalType":"address"},{"name":"value","type":"uint256","indexed":false,"internalType":"uint256"}],"anonymous":false},{"type":"event","name":"OwnershipTransferred","inputs":[{"name":"previousOwner","type":"address","indexed":true,"internalType":"address"},{"name":"newOwner","type":"address","indexed":true,"internalType":"address"}],"anonymous":false},{"type":"event","name":"Transfer","inputs":[{"name":"from","type":"address","indexed":true,"internalType":"address"},{"name":"to","type":"address","indexed":true,"internalType":"address"},{"name":"value","type":"uint256","indexed":false,"internalType":"uint256"}],"anonymous":false},{"type":"error","name":"ERC20InsufficientAllowance","inputs":[{"name":"spender","type":"address","internalType":"address"},{"name":"allowance","type":"uint256","internalType":"uint256"},{"name":"needed","type":"uint256","internalType":"uint256"}]},{"type":"error","name":"ERC20InsufficientBalance","inputs":[{"name":"sender","type":"address","internalType":"address"},{"name":"balance","type":"uint256","internalType":"uint256"},{"name":"needed","type":"uint256","internalType":"uint256"}]},{"type":"error","name":"ERC20InvalidApprover","inputs":[{"name":"approver","type":"address","internalType":"address"}]},{"type":"error","name":"ERC20InvalidReceiver","inputs":[{"name":"receiver","type":"address","internalType":"address"}]},{"type":"error","name":"ERC20InvalidSender","inputs":[{"name":"sender","type":"address","internalType":"address"}]},{"type":"error","name":"ERC20InvalidSpender","inputs":[{"name":"spender","type":"address","internalType":"address"}]},{"type":"error","name":"OwnableInvalidOwner","inputs":[{"name":"owner","type":"address","internalType":"address"}]},{"type":"error","name":"OwnableUnauthorizedAccount","inputs":[{"name":"account","type":"address","internalType":"address"}]}],"bytecode":{"object":"0x60a06040523480156200001157600080fd5b5060405162000ca438038062000ca48339810160408190526200003491620001b5565b3383836003620000458382620002b7565b506004620000548282620002b7565b5050506001600160a01b0381166200008657604051631e4fbdf760e01b81526000600482015260240160405180910390fd5b62000091816200009e565b5060805250620003839050565b600580546001600160a01b038381166001600160a01b0319831681179093556040519116919082907f8be0079c531659141344cd1fd0a4f28419497f9722a3daafe3b4186f6b6457e090600090a35050565b634e487b7160e01b600052604160045260246000fd5b600082601f8301126200011857600080fd5b81516001600160401b0380821115620001355762000135620000f0565b604051601f8301601f19908116603f01168101908282118183101715620001605762000160620000f0565b816040528381526020925086838588010111156200017d57600080fd5b600091505b83821015620001a1578582018301518183018401529082019062000182565b600093810190920192909252949350505050565b600080600060608486031215620001cb57600080fd5b83516001600160401b0380821115620001e357600080fd5b620001f18783880162000106565b945060208601519150808211156200020857600080fd5b50620002178682870162000106565b925050604084015190509250925092565b600181811c908216806200023d57607f821691505b6020821081036200025e57634e487b7160e01b600052602260045260246000fd5b50919050565b601f821115620002b257600081815260208120601f850160051c810160208610156200028d5750805b601f850160051c820191505b81811015620002ae5782815560010162000299565b5050505b505050565b81516001600160401b03811115620002d357620002d3620000f0565b620002eb81620002e4845462000228565b8462000264565b602080601f8311600181146200032357600084156200030a5750858301515b600019600386901b1c1916600185901b178555620002ae565b600085815260208120601f198616915b82811015620003545788860151825594840194600190910190840162000333565b5085821015620003735787850151600019600388901b60f8161c191681555b5050505050600190811b01905550565b6080516109056200039f60003960006101cf01526109056000f3fe608060405234801561001057600080fd5b50600436106100ea5760003560e01c8063715018a61161008c578063a8766bc111610066578063a8766bc1146101cd578063a9059cbb146101f3578063dd62ed3e14610206578063f2fde38b1461023f57600080fd5b8063715018a6146101a25780638da5cb5b146101aa57806395d89b41146101c557600080fd5b806323b872dd116100c857806323b872dd14610142578063313ce5671461015557806340c10f191461016457806370a082311461017957600080fd5b806306fdde03146100ef578063095ea7b31461010d57806318160ddd14610130575b600080fd5b6100f7610252565b604051610104919061074f565b60405180910390f35b61012061011b3660046107b9565b6102e4565b6040519015158152602001610104565b6002545b604051908152602001610104565b6101206101503660046107e3565b6102fe565b60405160128152602001610104565b6101776101723660046107b9565b610322565b005b61013461018736600461081f565b6001600160a01b031660009081526020819052604090205490565b610177610338565b6005546040516001600160a01b039091168152602001610104565b6100f761034c565b7f0000000000000000000000000000000000000000000000000000000000000000610134565b6101206102013660046107b9565b61035b565b610134610214366004610841565b6001600160a01b03918216600090815260016020908152604080832093909416825291909152205490565b61017761024d36600461081f565b610369565b60606003805461026190610874565b80601f016020809104026020016040519081016040528092919081815260200182805461028d90610874565b80156102da5780601f106102af576101008083540402835291602001916102da565b820191906000526020600020905b8154815290600101906020018083116102bd57829003601f168201915b5050505050905090565b6000336102f28185856103ac565b60019150505b92915050565b60003361030c8582856103be565b61031785858561043c565b506001949350505050565b61032a61049b565b61033482826104c8565b5050565b61034061049b565b61034a60006104fe565b565b60606004805461026190610874565b6000336102f281858561043c565b61037161049b565b6001600160a01b0381166103a057604051631e4fbdf760e01b8152600060048201526024015b60405180910390fd5b6103a9816104fe565b50565b6103b98383836001610550565b505050565b6001600160a01b038381166000908152600160209081526040808320938616835292905220546000198114610436578181101561042757604051637dc7a0d960e11b81526001600160a01b03841660048201526024810182905260448101839052606401610397565b61043684848484036000610550565b50505050565b6001600160a01b03831661046657604051634b637e8f60e11b815260006004820152602401610397565b6001600160a01b0382166104905760405163ec442f0560e01b815260006004820152602401610397565b6103b9838383610625565b6005546001600160a01b0316331461034a5760405163118cdaa760e01b8152336004820152602401610397565b6001600160a01b0382166104f25760405163ec442f0560e01b815260006004820152602401610397565b61033460008383610625565b600580546001600160a01b038381166001600160a01b0319831681179093556040519116919082907f8be0079c531659141344cd1fd0a4f28419497f9722a3daafe3b4186f6b6457e090600090a35050565b6001600160a01b03841661057a5760405163e602df0560e01b815260006004820152602401610397565b6001600160a01b0383166105a457604051634a1406b160e11b815260006004820152602401610397565b6001600160a01b038085166000908152600160209081526040808320938716835292905220829055801561043657826001600160a01b0316846001600160a01b03167f8c5be1e5ebec7d5bd14f71427d1e84f3dd0314c0f7b2291e5b200ac8c7c3b9258460405161061791815260200190565b60405180910390a350505050565b6001600160a01b03831661065057806002600082825461064591906108ae565b909155506106c29050565b6001600160a01b038316600090815260208190526040902054818110156106a35760405163391434e360e21b81526001600160a01b03851660048201526024810182905260448101839052606401610397565b6001600160a01b03841660009081526020819052604090209082900390555b6001600160a01b0382166106de576002805482900390556106fd565b6001600160a01b03821660009081526020819052604090208054820190555b816001600160a01b0316836001600160a01b03167fddf252ad1be2c89b69c2b068fc378daa952ba7f163c4a11628f55a4df523b3ef8360405161074291815260200190565b60405180910390a3505050565b600060208083528351808285015260005b8181101561077c57858101830151858201604001528201610760565b506000604082860101526040601f19601f8301168501019250505092915050565b80356001600160a01b03811681146107b457600080fd5b919050565b600080604083850312156107cc57600080fd5b6107d58361079d565b946020939093013593505050565b6000806000606084860312156107f857600080fd5b6108018461079d565b925061080f6020850161079d565b9150604084013590509250925092565b60006020828403121561083157600080fd5b61083a8261079d565b9392505050565b6000806040838503121561085457600080fd5b61085d8361079d565b915061086b6020840161079d565b90509250929050565b600181811c9082168061088857607f821691505b6020821081036108a857634e487b7160e01b600052602260045260246000fd5b50919050565b808201808211156102f857634e487b7160e01b600052601160045260246000fdfea264697066735822122021bbbf34c07e01846218e5c3e7617364702d21174e3d6e8fb9651e1995228f0b64736f6c63430008150033","linkReferences":{}},"methodIdentifiers":{"allowance(address,address)":"dd62ed3e","approve(address,uint256)":"095ea7b3","balanceOf(address)":"70a08231","decimals()":"313ce567","getTokenPriceInUSD()":"a8766bc1","mint(address,uint256)":"40c10f19","name()":"06fdde03","owner()":"8da5cb5b","renounceOwnership()":"715018a6","symbol()":"95d89b41","totalSupply()":"18160ddd","transfer(address,uint256)":"a9059cbb","transferFrom(address,address,uint256)":"23b872dd","transferOwnership(address)":"f2fde38b"},"id":7}